:100000000A128A11FC2F00308A000408840A820731
:0E001000003474346534733474343234003484
:100CBA00F500F6017308760203180800760875072E
:100CCA0084000A128A1103200A128A110A128A114E
:100CDA00CC260A128A110130F4007408F6075F2E36
:100CEA0002300A128A119D260A128A1128300A1223
:100CFA008A119D260A128A110C300A128A119D261F
:100D0A000A128A1106300A128A119D260A128A11BB
:100D1A0001300A128A119D260A128A118230F400C1
:100D2A00DD30F300F30B972EF40B972E9C2E080060
:100D3A00F2007208F0398312031388000914413053
:100D4A00F100EE30F000F00BA82EF10BA82E0000F7
:100D5A0083120313891009107208F000033003107C
:100D6A00F00DFF3E031DB42E0310700DF0398800FC
:100D7A00091489104130F100EE30F000F00BC32E57
:100D8A00F10BC32E00008312031309100800F200AE
:100D9A007208F03983120313880009148914413048
:100DAA00F100EE30F000F00BD82EF10BD82E000037
:100DBA008312031309107208F00003300310F00DB8
:100DCA00FF3E031DE32E0310700DF039880009144D
:100DDA0089144130F100EE30F000F00BF22EF10BE5
:100DEA00F22E00008312031309100800F601F11F06
:100DFA00052FF009F109F00A0319F10AF601F60ABA
:100E0A00F31F102FF209F309F20A0319F30A01304A
:100E1A00F4007408F606F701F80170087104031962
:100E2A00472FF501F50AF11B262F01300310F00DAB
:100E3A00F10DFF3E031D1B2F0130F4007408F50766
:100E4A00182F01300310F70DF80DFF3E031D272F51
:100E5A0071087302031D332F70087202031C3C2FA2
:100E6A007008F2027108031CF303F30277140130CD
:100E7A000310F10CF00CFF3E031D3D2F0130F5026B
:100E8A00031D262F760803194F2FF709F809F70AC9
:100E9A000319F80A7808F1007708F00008008316A9
:100EAA00031388018901203086001030831203134E
:100EBA0090000A128A1175260A128A110230FB0062
:100ECA004530FA00A930F900F90B692FFA0B692F9E
:100EDA00FB0B692F702F81300A128A119D260A1284
:100EEA008A110530F9007908F30001300A128A11D3
:100EFA005D260A128A110230FB004530FA00A93039
:100F0A00F900F90B862FFA0B862FFB0B862F8D2FF4
:100F1A00C1300A128A119D260A128A110530F90077
:100F2A007908F30001300A128A115D260A128A1121
:100F3A000230FB004530FA00A930F900F90BA32F63
:100F4A00FA0BA32FFB0BA32FAA2F831203138F01D4
:100F5A008E0106161030F900F90BB12F000083122A
:100F6A0003130612861EB72F1014861ABA2F1010F2
:100F7A003A30F0000030F1000F08F900FA01790860
:100F8A00FA00F90179080E04F2007A08F3000A124D
:100F9A008A11FB260A128A117008013EFC007108A8
:100FAA000318013E003EFD0000307D021430031993
:100FBA007C020318EB2F00307D02023003197C02F9
:100FCA00031CEB2F831203130815EE2F831203134E
:100FDA0008110330FB008A30FA005530F900F90B8A
:100FEA00F42FFA0BF42FFB0BF42FFB2F702F830136
:060FFA000A128A11542FB7
:02400E003A3F37
:00000001FF
